{
  "contractName": "NFTMarketplace",
  "abi": [
    {
      "inputs": [
        {
          "internalType": "address",
          "name": "marketplaceAddress",
          "type": "address"
        }
      ],
      "stateMutability": "nonpayable",
      "type": "constructor"
    },
    {
      "anonymous": false,
      "inputs": [
        {
          "indexed": true,
          "internalType": "address",
          "name": "owner",
          "type": "address"
        },
        {
          "indexed": true,
          "internalType": "address",
          "name": "approved",
          "type": "address"
        },
        {
          "indexed": true,
          "internalType": "uint256",
          "name": "tokenId",
          "type": "uint256"
        }
      ],
      "name": "Approval",
      "type": "event"
    },
    {
      "anonymous": false,
      "inputs": [
        {
          "indexed": true,
          "internalType": "address",
          "name": "owner",
          "type": "address"
        },
        {
          "indexed": true,
          "internalType": "address",
          "name": "operator",
          "type": "address"
        },
        {
          "indexed": false,
          "internalType": "bool",
          "name": "approved",
          "type": "bool"
        }
      ],
      "name": "ApprovalForAll",
      "type": "event"
    },
    {
      "anonymous": false,
      "inputs": [
        {
          "indexed": true,
          "internalType": "address",
          "name": "previousOwner",
          "type": "address"
        },
        {
          "indexed": true,
          "internalType": "address",
          "name": "newOwner",
          "type": "address"
        }
      ],
      "name": "OwnershipTransferred",
      "type": "event"
    },
    {
      "anonymous": false,
      "inputs": [
        {
          "indexed": true,
          "internalType": "address",
          "name": "from",
          "type": "address"
        },
        {
          "indexed": true,
          "internalType": "address",
          "name": "to",
          "type": "address"
        },
        {
          "indexed": true,
          "internalType": "uint256",
          "name": "tokenId",
          "type": "uint256"
        }
      ],
      "name": "Transfer",
      "type": "event"
    },
    {
      "inputs": [
        {
          "internalType": "address",
          "name": "to",
          "type": "address"
        },
        {
          "internalType": "uint256",
          "name": "tokenId",
          "type": "uint256"
        }
      ],
      "name": "approve",
      "outputs": [],
      "stateMutability": "nonpayable",
      "type": "function"
    },
    {
      "inputs": [
        {
          "internalType": "address",
          "name": "owner",
          "type": "address"
        }
      ],
      "name": "balanceOf",
      "outputs": [
        {
          "internalType": "uint256",
          "name": "",
          "type": "uint256"
        }
      ],
      "stateMutability": "view",
      "type": "function",
      "constant": true
    },
    {
      "inputs": [
        {
          "internalType": "uint256",
          "name": "tokenId",
          "type": "uint256"
        }
      ],
      "name": "getApproved",
      "outputs": [
        {
          "internalType": "address",
          "name": "",
          "type": "address"
        }
      ],
      "stateMutability": "view",
      "type": "function",
      "constant": true
    },
    {
      "inputs": [
        {
          "internalType": "address",
          "name": "owner",
          "type": "address"
        },
        {
          "internalType": "address",
          "name": "operator",
          "type": "address"
        }
      ],
      "name": "isApprovedForAll",
      "outputs": [
        {
          "internalType": "bool",
          "name": "",
          "type": "bool"
        }
      ],
      "stateMutability": "view",
      "type": "function",
      "constant": true
    },
    {
      "inputs": [],
      "name": "name",
      "outputs": [
        {
          "internalType": "string",
          "name": "",
          "type": "string"
        }
      ],
      "stateMutability": "view",
      "type": "function",
      "constant": true
    },
    {
      "inputs": [],
      "name": "owner",
      "outputs": [
        {
          "internalType": "address",
          "name": "",
          "type": "address"
        }
      ],
      "stateMutability": "view",
      "type": "function",
      "constant": true
    },
    {
      "inputs": [
        {
          "internalType": "uint256",
          "name": "tokenId",
          "type": "uint256"
        }
      ],
      "name": "ownerOf",
      "outputs": [
        {
          "internalType": "address",
          "name": "",
          "type": "address"
        }
      ],
      "stateMutability": "view",
      "type": "function",
      "constant": true
    },
    {
      "inputs": [],
      "name": "renounceOwnership",
      "outputs": [],
      "stateMutability": "nonpayable",
      "type": "function"
    },
    {
      "inputs": [
        {
          "internalType": "address",
          "name": "from",
          "type": "address"
        },
        {
          "internalType": "address",
          "name": "to",
          "type": "address"
        },
        {
          "internalType": "uint256",
          "name": "tokenId",
          "type": "uint256"
        }
      ],
      "name": "safeTransferFrom",
      "outputs": [],
      "stateMutability": "nonpayable",
      "type": "function"
    },
    {
      "inputs": [
        {
          "internalType": "address",
          "name": "from",
          "type": "address"
        },
        {
          "internalType": "address",
          "name": "to",
          "type": "address"
        },
        {
          "internalType": "uint256",
          "name": "tokenId",
          "type": "uint256"
        },
        {
          "internalType": "bytes",
          "name": "_data",
          "type": "bytes"
        }
      ],
      "name": "safeTransferFrom",
      "outputs": [],
      "stateMutability": "nonpayable",
      "type": "function"
    },
    {
      "inputs": [
        {
          "internalType": "address",
          "name": "operator",
          "type": "address"
        },
        {
          "internalType": "bool",
          "name": "approved",
          "type": "bool"
        }
      ],
      "name": "setApprovalForAll",
      "outputs": [],
      "stateMutability": "nonpayable",
      "type": "function"
    },
    {
      "inputs": [
        {
          "internalType": "bytes4",
          "name": "interfaceId",
          "type": "bytes4"
        }
      ],
      "name": "supportsInterface",
      "outputs": [
        {
          "internalType": "bool",
          "name": "",
          "type": "bool"
        }
      ],
      "stateMutability": "view",
      "type": "function",
      "constant": true
    },
    {
      "inputs": [],
      "name": "symbol",
      "outputs": [
        {
          "internalType": "string",
          "name": "",
          "type": "string"
        }
      ],
      "stateMutability": "view",
      "type": "function",
      "constant": true
    },
    {
      "inputs": [
        {
          "internalType": "uint256",
          "name": "tokenId",
          "type": "uint256"
        }
      ],
      "name": "tokenURI",
      "outputs": [
        {
          "internalType": "string",
          "name": "",
          "type": "string"
        }
      ],
      "stateMutability": "view",
      "type": "function",
      "constant": true
    },
    {
      "inputs": [
        {
          "internalType": "address",
          "name": "from",
          "type": "address"
        },
        {
          "internalType": "address",
          "name": "to",
          "type": "address"
        },
        {
          "internalType": "uint256",
          "name": "tokenId",
          "type": "uint256"
        }
      ],
      "name": "transferFrom",
      "outputs": [],
      "stateMutability": "nonpayable",
      "type": "function"
    },
    {
      "inputs": [
        {
          "internalType": "address",
          "name": "newOwner",
          "type": "address"
        }
      ],
      "name": "transferOwnership",
      "outputs": [],
      "stateMutability": "nonpayable",
      "type": "function"
    },
    {
      "inputs": [
        {
          "internalType": "address",
          "name": "_to",
          "type": "address"
        },
        {
          "internalType": "string",
          "name": "_hash",
          "type": "string"
        },
        {
          "internalType": "string",
          "name": "_metadata",
          "type": "string"
        }
      ],
      "name": "mint",
      "outputs": [
        {
          "internalType": "uint256",
          "name": "",
          "type": "uint256"
        }
      ],
      "stateMutability": "nonpayable",
      "type": "function"
    }
  ],
  "bytecode": "0x60806040523480156200001157600080fd5b50604051620034453803806200344583398181016040528101906200003791906200032f565b6040518060400160405280601281526020017f4d6f6f6e526f636b657420546f6b656e732000000000000000000000000000008152506040518060400160405280600481526020017f4d4f5254000000000000000000000000000000000000000000000000000000008152506001600081905550620000cb620000bf6200014760201b60201c565b6200014f60201b60201c565b8160029080519060200190620000e392919062000215565b508060039080519060200190620000fc92919062000215565b50505080600b60006101000a81548173ffffffffffffffffffffffffffffffffffffffff021916908373ffffffffffffffffffffffffffffffffffffffff16021790555050620003c5565b600033905090565b6000600160009054906101000a900473ffffffffffffffffffffffffffffffffffffffff16905081600160006101000a81548173ffffffffffffffffffffffffffffffffffffffff021916908373ffffffffffffffffffffffffffffffffffffffff1602179055508173ffffffffffffffffffffffffffffffffffffffff168173ffffffffffffffffffffffffffffffffffffffff167f8be0079c531659141344cd1fd0a4f28419497f9722a3daafe3b4186f6b6457e060405160405180910390a35050565b828054620002239062000390565b90600052602060002090601f01602090048101928262000247576000855562000293565b82601f106200026257805160ff191683800117855562000293565b8280016001018555821562000293579182015b828111156200029257825182559160200191906001019062000275565b5b509050620002a29190620002a6565b5090565b5b80821115620002c1576000816000905550600101620002a7565b5090565b600080fd5b600073ffffffffffffffffffffffffffffffffffffffff82169050919050565b6000620002f782620002ca565b9050919050565b6200030981620002ea565b81146200031557600080fd5b50565b6000815190506200032981620002fe565b92915050565b600060208284031215620003485762000347620002c5565b5b6000620003588482850162000318565b91505092915050565b7f4e487b7100000000000000000000000000000000000000000000000000000000600052602260045260246000fd5b60006002820490506001821680620003a957607f821691505b602082108103620003bf57620003be62000361565b5b50919050565b61307080620003d56000396000f3fe608060405234801561001057600080fd5b506004361061010b5760003560e01c8063715018a6116100a2578063a22cb46511610071578063a22cb465146102b8578063b88d4fde146102d4578063c87b56dd146102f0578063e985e9c514610320578063f2fde38b146103505761010b565b8063715018a6146102425780638da5cb5b1461024c57806395d89b411461026a57806399071190146102885761010b565b806323b872dd116100de57806323b872dd146101aa57806342842e0e146101c65780636352211e146101e257806370a08231146102125761010b565b806301ffc9a71461011057806306fdde0314610140578063081812fc1461015e578063095ea7b31461018e575b600080fd5b61012a60048036038101906101259190611c90565b61036c565b6040516101379190611cd8565b60405180910390f35b61014861044e565b6040516101559190611d8c565b60405180910390f35b61017860048036038101906101739190611de4565b6104e0565b6040516101859190611e52565b60405180910390f35b6101a860048036038101906101a39190611e99565b610565565b005b6101c460048036038101906101bf9190611ed9565b61067c565b005b6101e060048036038101906101db9190611ed9565b6106dc565b005b6101fc60048036038101906101f79190611de4565b6106fc565b6040516102099190611e52565b60405180910390f35b61022c60048036038101906102279190611f2c565b6107ad565b6040516102399190611f68565b60405180910390f35b61024a610864565b005b6102546108ec565b6040516102619190611e52565b60405180910390f35b610272610916565b60405161027f9190611d8c565b60405180910390f35b6102a2600480360381019061029d91906120b8565b6109a8565b6040516102af9190611f68565b60405180910390f35b6102d260048036038101906102cd919061216f565b610a81565b005b6102ee60048036038101906102e99190612250565b610a97565b005b61030a60048036038101906103059190611de4565b610af9565b6040516103179190611d8c565b60405180910390f35b61033a600480360381019061033591906122d3565b610c4a565b6040516103479190611cd8565b60405180910390f35b61036a60048036038101906103659190611f2c565b610cde565b005b60007f80ac58cd000000000000000000000000000000000000000000000000000000007bffffffffffffffffffffffffffffffffffffffffffffffffffffffff1916827bffffffffffffffffffffffffffffffffffffffffffffffffffffffff1916148061043757507f5b5e139f000000000000000000000000000000000000000000000000000000007bffffffffffffffffffffffffffffffffffffffffffffffffffffffff1916827bffffffffffffffffffffffffffffffffffffffffffffffffffffffff1916145b80610447575061044682610dd5565b5b9050919050565b60606002805461045d90612342565b80601f016020809104026020016040519081016040528092919081815260200182805461048990612342565b80156104d65780601f106104ab576101008083540402835291602001916104d6565b820191906000526020600020905b8154815290600101906020018083116104b957829003601f168201915b5050505050905090565b60006104eb82610e3f565b61052a576040517f08c379a0000000000000000000000000000000000000000000000000000000008152600401610521906123e5565b60405180910390fd5b6006600083815260200190815260200160002060009054906101000a900473ffffffffffffffffffffffffffffffffffffffff169050919050565b6000610570826106fc565b90508073ffffffffffffffffffffffffffffffffffffffff168373ffffffffffffffffffffffffffffffffffffffff16036105e0576040517f08c379a00000000000000000000000000000000000000000000000000000000081526004016105d790612477565b60405180910390fd5b8073ffffffffffffffffffffffffffffffffffffffff166105ff610eab565b73ffffffffffffffffffffffffffffffffffffffff16148061062e575061062d81610628610eab565b610c4a565b5b61066d576040517f08c379a000000000000000000000000000000000000000000000000000000000815260040161066490612509565b60405180910390fd5b6106778383610eb3565b505050565b61068d610687610eab565b82610f6c565b6106cc576040517f08c379a00000000000000000000000000000000000000000000000000000000081526004016106c39061259b565b60405180910390fd5b6106d783838361104a565b505050565b6106f783838360405180602001604052806000815250610a97565b505050565b6000806004600084815260200190815260200160002060009054906101000a900473ffffffffffffffffffffffffffffffffffffffff169050600073ffffffffffffffffffffffffffffffffffffffff168173ffffffffffffffffffffffffffffffffffffffff16036107a4576040517f08c379a000000000000000000000000000000000000000000000000000000000815260040161079b9061262d565b60405180910390fd5b80915050919050565b60008073ffffffffffffffffffffffffffffffffffffffff168273ffffffffffffffffffffffffffffffffffffffff160361081d576040517f08c379a0000000000000000000000000000000000000000000000000000000008152600401610814906126bf565b60405180910390fd5b600560008373ffffffffffffffffffffffffffffffffffffffff1673ffffffffffffffffffffffffffffffffffffffff168152602001908152602001600020549050919050565b61086c610eab565b73ffffffffffffffffffffffffffffffffffffffff1661088a6108ec565b73ffffffffffffffffffffffffffffffffffffffff16146108e0576040517f08c379a00000000000000000000000000000000000000000000000000000000081526004016108d79061272b565b60405180910390fd5b6108ea60006112b0565b565b6000600160009054906101000a900473ffffffffffffffffffffffffffffffffffffffff16905090565b60606003805461092590612342565b80601f016020809104026020016040519081016040528092919081815260200182805461095190612342565b801561099e5780601f106109735761010080835404028352916020019161099e565b820191906000526020600020905b81548152906001019060200180831161098157829003601f168201915b5050505050905090565b60006001600a846040516109bc9190612787565b908152602001604051809103902060009054906101000a900460ff1660ff16036109e557600080fd5b6001600a846040516109f79190612787565b908152602001604051809103902060006101000a81548160ff021916908360ff160217905550610a276009611376565b6000610a33600961138c565b9050610a3f858261139a565b610a498184611573565b610a76600b60009054906101000a900473ffffffffffffffffffffffffffffffffffffffff166001610a81565b809150509392505050565b610a93610a8c610eab565b83836115e7565b5050565b610aa8610aa2610eab565b83610f6c565b610ae7576040517f08c379a0000000000000000000000000000000000000000000000000000000008152600401610ade9061259b565b60405180910390fd5b610af384848484611753565b50505050565b6060610b0482610e3f565b610b43576040517f08c379a0000000000000000000000000000000000000000000000000000000008152600401610b3a90612810565b60405180910390fd5b6000600860008481526020019081526020016000208054610b6390612342565b80601f0160208091040260200160405190810160405280929190818152602001828054610b8f90612342565b8015610bdc5780601f10610bb157610100808354040283529160200191610bdc565b820191906000526020600020905b815481529060010190602001808311610bbf57829003601f168201915b505050505090506000610bed6117af565b90506000815103610c02578192505050610c45565b600082511115610c37578082604051602001610c1f929190612830565b60405160208183030381529060405292505050610c45565b610c40846117c6565b925050505b919050565b6000600760008473ffffffffffffffffffffffffffffffffffffffff1673ffffffffffffffffffffffffffffffffffffffff16815260200190815260200160002060008373ffffffffffffffffffffffffffffffffffffffff1673ffffffffffffffffffffffffffffffffffffffff16815260200190815260200160002060009054906101000a900460ff16905092915050565b610ce6610eab565b73ffffffffffffffffffffffffffffffffffffffff16610d046108ec565b73ffffffffffffffffffffffffffffffffffffffff1614610d5a576040517f08c379a0000000000000000000000000000000000000000000000000000000008152600401610d519061272b565b60405180910390fd5b600073ffffffffffffffffffffffffffffffffffffffff168173ffffffffffffffffffffffffffffffffffffffff1603610dc9576040517f08c379a0000000000000000000000000000000000000000000000000000000008152600401610dc0906128c6565b60405180910390fd5b610dd2816112b0565b50565b60007f01ffc9a7000000000000000000000000000000000000000000000000000000007bffffffffffffffffffffffffffffffffffffffffffffffffffffffff1916827bffffffffffffffffffffffffffffffffffffffffffffffffffffffff1916149050919050565b60008073ffffffffffffffffffffffffffffffffffffffff166004600084815260200190815260200160002060009054906101000a900473ffffffffffffffffffffffffffffffffffffffff1673ffffffffffffffffffffffffffffffffffffffff1614159050919050565b600033905090565b816006600083815260200190815260200160002060006101000a81548173ffffffffffffffffffffffffffffffffffffffff021916908373ffffffffffffffffffffffffffffffffffffffff160217905550808273ffffffffffffffffffffffffffffffffffffffff16610f26836106fc565b73ffffffffffffffffffffffffffffffffffffffff167f8c5be1e5ebec7d5bd14f71427d1e84f3dd0314c0f7b2291e5b200ac8c7c3b92560405160405180910390a45050565b6000610f7782610e3f565b610fb6576040517f08c379a0000000000000000000000000000000000000000000000000000000008152600401610fad90612958565b60405180910390fd5b6000610fc1836106fc565b90508073ffffffffffffffffffffffffffffffffffffffff168473ffffffffffffffffffffffffffffffffffffffff16148061100357506110028185610c4a565b5b8061104157508373ffffffffffffffffffffffffffffffffffffffff16611029846104e0565b73ffffffffffffffffffffffffffffffffffffffff16145b91505092915050565b8273ffffffffffffffffffffffffffffffffffffffff1661106a826106fc565b73ffffffffffffffffffffffffffffffffffffffff16146110c0576040517f08c379a00000000000000000000000000000000000000000000000000000000081526004016110b7906129ea565b60405180910390fd5b600073ffffffffffffffffffffffffffffffffffffffff168273ffffffffffffffffffffffffffffffffffffffff160361112f576040517f08c379a000000000000000000000000000000000000000000000000000000000815260040161112690612a7c565b60405180910390fd5b61113a83838361186d565b611145600082610eb3565b6001600560008573ffffffffffffffffffffffffffffffffffffffff1673ffffffffffffffffffffffffffffffffffffffff16815260200190815260200160002060008282546111959190612acb565b925050819055506001600560008473ffffffffffffffffffffffffffffffffffffffff1673ffffffffffffffffffffffffffffffffffffffff16815260200190815260200160002060008282546111ec9190612aff565b92505081905550816004600083815260200190815260200160002060006101000a81548173ffffffffffffffffffffffffffffffffffffffff021916908373ffffffffffffffffffffffffffffffffffffffff160217905550808273ffffffffffffffffffffffffffffffffffffffff168473ffffffffffffffffffffffffffffffffffffffff167fddf252ad1be2c89b69c2b068fc378daa952ba7f163c4a11628f55a4df523b3ef60405160405180910390a46112ab838383611872565b505050565b6000600160009054906101000a900473ffffffffffffffffffffffffffffffffffffffff16905081600160006101000a81548173ffffffffffffffffffffffffffffffffffffffff021916908373ffffffffffffffffffffffffffffffffffffffff1602179055508173ffffffffffffffffffffffffffffffffffffffff168173ffffffffffffffffffffffffffffffffffffffff167f8be0079c531659141344cd1fd0a4f28419497f9722a3daafe3b4186f6b6457e060405160405180910390a35050565b6001816000016000828254019250508190555050565b600081600001549050919050565b600073ffffffffffffffffffffffffffffffffffffffff168273ffffffffffffffffffffffffffffffffffffffff1603611409576040517f08c379a000000000000000000000000000000000000000000000000000000000815260040161140090612ba1565b60405180910390fd5b61141281610e3f565b15611452576040517f08c379a000000000000000000000000000000000000000000000000000000000815260040161144990612c0d565b60405180910390fd5b61145e6000838361186d565b6001600560008473ffffffffffffffffffffffffffffffffffffffff1673ffffffffffffffffffffffffffffffffffffffff16815260200190815260200160002060008282546114ae9190612aff565b92505081905550816004600083815260200190815260200160002060006101000a81548173ffffffffffffffffffffffffffffffffffffffff021916908373ffffffffffffffffffffffffffffffffffffffff160217905550808273ffffffffffffffffffffffffffffffffffffffff16600073ffffffffffffffffffffffffffffffffffffffff167fddf252ad1be2c89b69c2b068fc378daa952ba7f163c4a11628f55a4df523b3ef60405160405180910390a461156f60008383611872565b5050565b61157c82610e3f565b6115bb576040517f08c379a00000000000000000000000000000000000000000000000000000000081526004016115b290612c9f565b60405180910390fd5b806008600084815260200190815260200160002090805190602001906115e2929190611b81565b505050565b8173ffffffffffffffffffffffffffffffffffffffff168373ffffffffffffffffffffffffffffffffffffffff1603611655576040517f08c379a000000000000000000000000000000000000000000000000000000000815260040161164c90612d0b565b60405180910390fd5b80600760008573ffffffffffffffffffffffffffffffffffffffff1673ffffffffffffffffffffffffffffffffffffffff16815260200190815260200160002060008473ffffffffffffffffffffffffffffffffffffffff1673ffffffffffffffffffffffffffffffffffffffff16815260200190815260200160002060006101000a81548160ff0219169083151502179055508173ffffffffffffffffffffffffffffffffffffffff168373ffffffffffffffffffffffffffffffffffffffff167f17307eab39ab6107e8899845ad3d59bd9653f200f220920489ca2b5937696c31836040516117469190611cd8565b60405180910390a3505050565b61175e84848461104a565b61176a84848484611877565b6117a9576040517f08c379a00000000000000000000000000000000000000000000000000000000081526004016117a090612d9d565b60405180910390fd5b50505050565b606060405180602001604052806000815250905090565b60606117d182610e3f565b611810576040517f08c379a000000000000000000000000000000000000000000000000000000000815260040161180790612e2f565b60405180910390fd5b600061181a6117af565b9050600081511161183a5760405180602001604052806000815250611865565b80611844846119fe565b604051602001611855929190612830565b6040516020818303038152906040525b915050919050565b505050565b505050565b60006118988473ffffffffffffffffffffffffffffffffffffffff16611b5e565b156119f1578373ffffffffffffffffffffffffffffffffffffffff1663150b7a026118c1610eab565b8786866040518563ffffffff1660e01b81526004016118e39493929190612ea4565b6020604051808303816000875af192505050801561191f57506040513d601f19601f8201168201806040525081019061191c9190612f05565b60015b6119a1573d806000811461194f576040519150601f19603f3d011682016040523d82523d6000602084013e611954565b606091505b506000815103611999576040517f08c379a000000000000000000000000000000000000000000000000000000000815260040161199090612d9d565b60405180910390fd5b805181602001fd5b63150b7a0260e01b7bffffffffffffffffffffffffffffffffffffffffffffffffffffffff1916817bffffffffffffffffffffffffffffffffffffffffffffffffffffffff1916149150506119f6565b600190505b949350505050565b606060008203611a45576040518060400160405280600181526020017f30000000000000000000000000000000000000000000000000000000000000008152509050611b59565b600082905060005b60008214611a77578080611a6090612f32565b915050600a82611a709190612fa9565b9150611a4d565b60008167ffffffffffffffff811115611a9357611a92611f8d565b5b6040519080825280601f01601f191660200182016040528015611ac55781602001600182028036833780820191505090505b5090505b60008514611b5257600182611ade9190612acb565b9150600a85611aed9190612fda565b6030611af99190612aff565b60f81b818381518110611b0f57611b0e61300b565b5b60200101907effffffffffffffffffffffffffffffffffffffffffffffffffffffffffffff1916908160001a905350600a85611b4b9190612fa9565b9450611ac9565b8093505050505b919050565b6000808273ffffffffffffffffffffffffffffffffffffffff163b119050919050565b828054611b8d90612342565b90600052602060002090601f016020900481019282611baf5760008555611bf6565b82601f10611bc857805160ff1916838001178555611bf6565b82800160010185558215611bf6579182015b82811115611bf5578251825591602001919060010190611bda565b5b509050611c039190611c07565b5090565b5b80821115611c20576000816000905550600101611c08565b5090565b6000604051905090565b600080fd5b600080fd5b60007fffffffff0000000000000000000000000000000000000000000000000000000082169050919050565b611c6d81611c38565b8114611c7857600080fd5b50565b600081359050611c8a81611c64565b92915050565b600060208284031215611ca657611ca5611c2e565b5b6000611cb484828501611c7b565b91505092915050565b60008115159050919050565b611cd281611cbd565b82525050565b6000602082019050611ced6000830184611cc9565b92915050565b600081519050919050565b600082825260208201905092915050565b60005b83811015611d2d578082015181840152602081019050611d12565b83811115611d3c576000848401525b50505050565b6000601f19601f8301169050919050565b6000611d5e82611cf3565b611d688185611cfe565b9350611d78818560208601611d0f565b611d8181611d42565b840191505092915050565b60006020820190508181036000830152611da68184611d53565b905092915050565b6000819050919050565b611dc181611dae565b8114611dcc57600080fd5b50565b600081359050611dde81611db8565b92915050565b600060208284031215611dfa57611df9611c2e565b5b6000611e0884828501611dcf565b91505092915050565b600073ffffffffffffffffffffffffffffffffffffffff82169050919050565b6000611e3c82611e11565b9050919050565b611e4c81611e31565b82525050565b6000602082019050611e676000830184611e43565b92915050565b611e7681611e31565b8114611e8157600080fd5b50565b600081359050611e9381611e6d565b92915050565b60008060408385031215611eb057611eaf611c2e565b5b6000611ebe85828601611e84565b9250506020611ecf85828601611dcf565b9150509250929050565b600080600060608486031215611ef257611ef1611c2e565b5b6000611f0086828701611e84565b9350506020611f1186828701611e84565b9250506040611f2286828701611dcf565b9150509250925092565b600060208284031215611f4257611f41611c2e565b5b6000611f5084828501611e84565b91505092915050565b611f6281611dae565b82525050565b6000602082019050611f7d6000830184611f59565b92915050565b600080fd5b600080fd5b7f4e487b7100000000000000000000000000000000000000000000000000000000600052604160045260246000fd5b611fc582611d42565b810181811067ffffffffffffffff82111715611fe457611fe3611f8d565b5b80604052505050565b6000611ff7611c24565b90506120038282611fbc565b919050565b600067ffffffffffffffff82111561202357612022611f8d565b5b61202c82611d42565b9050602081019050919050565b82818337600083830152505050565b600061205b61205684612008565b611fed565b90508281526020810184848401111561207757612076611f88565b5b612082848285612039565b509392505050565b600082601f83011261209f5761209e611f83565b5b81356120af848260208601612048565b91505092915050565b6000806000606084860312156120d1576120d0611c2e565b5b60006120df86828701611e84565b935050602084013567ffffffffffffffff811115612100576120ff611c33565b5b61210c8682870161208a565b925050604084013567ffffffffffffffff81111561212d5761212c611c33565b5b6121398682870161208a565b9150509250925092565b61214c81611cbd565b811461215757600080fd5b50565b60008135905061216981612143565b92915050565b6000806040838503121561218657612185611c2e565b5b600061219485828601611e84565b92505060206121a58582860161215a565b9150509250929050565b600067ffffffffffffffff8211156121ca576121c9611f8d565b5b6121d382611d42565b9050602081019050919050565b60006121f36121ee846121af565b611fed565b90508281526020810184848401111561220f5761220e611f88565b5b61221a848285612039565b509392505050565b600082601f83011261223757612236611f83565b5b81356122478482602086016121e0565b91505092915050565b6000806000806080858703121561226a57612269611c2e565b5b600061227887828801611e84565b945050602061228987828801611e84565b935050604061229a87828801611dcf565b925050606085013567ffffffffffffffff8111156122bb576122ba611c33565b5b6122c787828801612222565b91505092959194509250565b600080604083850312156122ea576122e9611c2e565b5b60006122f885828601611e84565b925050602061230985828601611e84565b9150509250929050565b7f4e487b7100000000000000000000000000000000000000000000000000000000600052602260045260246000fd5b6000600282049050600182168061235a57607f821691505b60208210810361236d5761236c612313565b5b50919050565b7f4552433732313a20617070726f76656420717565727920666f72206e6f6e657860008201527f697374656e7420746f6b656e0000000000000000000000000000000000000000602082015250565b60006123cf602c83611cfe565b91506123da82612373565b604082019050919050565b600060208201905081810360008301526123fe816123c2565b9050919050565b7f4552433732313a20617070726f76616c20746f2063757272656e74206f776e6560008201527f7200000000000000000000000000000000000000000000000000000000000000602082015250565b6000612461602183611cfe565b915061246c82612405565b604082019050919050565b6000602082019050818103600083015261249081612454565b9050919050565b7f4552433732313a20617070726f76652063616c6c6572206973206e6f74206f7760008201527f6e6572206e6f7220617070726f76656420666f7220616c6c0000000000000000602082015250565b60006124f3603883611cfe565b91506124fe82612497565b604082019050919050565b60006020820190508181036000830152612522816124e6565b9050919050565b7f4552433732313a207472616e736665722063616c6c6572206973206e6f74206f60008201527f776e6572206e6f7220617070726f766564000000000000000000000000000000602082015250565b6000612585603183611cfe565b915061259082612529565b604082019050919050565b600060208201905081810360008301526125b481612578565b9050919050565b7f4552433732313a206f776e657220717565727920666f72206e6f6e657869737460008201527f656e7420746f6b656e0000000000000000000000000000000000000000000000602082015250565b6000612617602983611cfe565b9150612622826125bb565b604082019050919050565b600060208201905081810360008301526126468161260a565b9050919050565b7f4552433732313a2062616c616e636520717565727920666f7220746865207a6560008201527f726f206164647265737300000000000000000000000000000000000000000000602082015250565b60006126a9602a83611cfe565b91506126b48261264d565b604082019050919050565b600060208201905081810360008301526126d88161269c565b9050919050565b7f4f776e61626c653a2063616c6c6572206973206e6f7420746865206f776e6572600082015250565b6000612715602083611cfe565b9150612720826126df565b602082019050919050565b6000602082019050818103600083015261274481612708565b9050919050565b600081905092915050565b600061276182611cf3565b61276b818561274b565b935061277b818560208601611d0f565b80840191505092915050565b60006127938284612756565b915081905092915050565b7f45524337323155524953746f726167653a2055524920717565727920666f722060008201527f6e6f6e6578697374656e7420746f6b656e000000000000000000000000000000602082015250565b60006127fa603183611cfe565b91506128058261279e565b604082019050919050565b60006020820190508181036000830152612829816127ed565b9050919050565b600061283c8285612756565b91506128488284612756565b91508190509392505050565b7f4f776e61626c653a206e6577206f776e657220697320746865207a65726f206160008201527f6464726573730000000000000000000000000000000000000000000000000000602082015250565b60006128b0602683611cfe565b91506128bb82612854565b604082019050919050565b600060208201905081810360008301526128df816128a3565b9050919050565b7f4552433732313a206f70657261746f7220717565727920666f72206e6f6e657860008201527f697374656e7420746f6b656e0000000000000000000000000000000000000000602082015250565b6000612942602c83611cfe565b915061294d826128e6565b604082019050919050565b6000602082019050818103600083015261297181612935565b9050919050565b7f4552433732313a207472616e736665722066726f6d20696e636f72726563742060008201527f6f776e6572000000000000000000000000000000000000000000000000000000602082015250565b60006129d4602583611cfe565b91506129df82612978565b604082019050919050565b60006020820190508181036000830152612a03816129c7565b9050919050565b7f4552433732313a207472616e7366657220746f20746865207a65726f2061646460008201527f7265737300000000000000000000000000000000000000000000000000000000602082015250565b6000612a66602483611cfe565b9150612a7182612a0a565b604082019050919050565b60006020820190508181036000830152612a9581612a59565b9050919050565b7f4e487b7100000000000000000000000000000000000000000000000000000000600052601160045260246000fd5b6000612ad682611dae565b9150612ae183611dae565b925082821015612af457612af3612a9c565b5b828203905092915050565b6000612b0a82611dae565b9150612b1583611dae565b9250827fffffffffffffffffffffffffffffffffffffffffffffffffffffffffffffffff03821115612b4a57612b49612a9c565b5b828201905092915050565b7f4552433732313a206d696e7420746f20746865207a65726f2061646472657373600082015250565b6000612b8b602083611cfe565b9150612b9682612b55565b602082019050919050565b60006020820190508181036000830152612bba81612b7e565b9050919050565b7f4552433732313a20746f6b656e20616c7265616479206d696e74656400000000600082015250565b6000612bf7601c83611cfe565b9150612c0282612bc1565b602082019050919050565b60006020820190508181036000830152612c2681612bea565b9050919050565b7f45524337323155524953746f726167653a2055524920736574206f66206e6f6e60008201527f6578697374656e7420746f6b656e000000000000000000000000000000000000602082015250565b6000612c89602e83611cfe565b9150612c9482612c2d565b604082019050919050565b60006020820190508181036000830152612cb881612c7c565b9050919050565b7f4552433732313a20617070726f766520746f2063616c6c657200000000000000600082015250565b6000612cf5601983611cfe565b9150612d0082612cbf565b602082019050919050565b60006020820190508181036000830152612d2481612ce8565b9050919050565b7f4552433732313a207472616e7366657220746f206e6f6e20455243373231526560008201527f63656976657220696d706c656d656e7465720000000000000000000000000000602082015250565b6000612d87603283611cfe565b9150612d9282612d2b565b604082019050919050565b60006020820190508181036000830152612db681612d7a565b9050919050565b7f4552433732314d657461646174613a2055524920717565727920666f72206e6f60008201527f6e6578697374656e7420746f6b656e0000000000000000000000000000000000602082015250565b6000612e19602f83611cfe565b9150612e2482612dbd565b604082019050919050565b60006020820190508181036000830152612e4881612e0c565b9050919050565b600081519050919050565b600082825260208201905092915050565b6000612e7682612e4f565b612e808185612e5a565b9350612e90818560208601611d0f565b612e9981611d42565b840191505092915050565b6000608082019050612eb96000830187611e43565b612ec66020830186611e43565b612ed36040830185611f59565b8181036060830152612ee58184612e6b565b905095945050505050565b600081519050612eff81611c64565b92915050565b600060208284031215612f1b57612f1a611c2e565b5b6000612f2984828501612ef0565b91505092915050565b6000612f3d82611dae565b91507fffffffffffffffffffffffffffffffffffffffffffffffffffffffffffffffff8203612f6f57612f6e612a9c565b5b600182019050919050565b7f4e487b7100000000000000000000000000000000000000000000000000000000600052601260045260246000fd5b6000612fb482611dae565b9150612fbf83611dae565b925082612fcf57612fce612f7a565b5b828204905092915050565b6000612fe582611dae565b9150612ff083611dae565b92508261300057612fff612f7a565b5b828206905092915050565b7f4e487b7100000000000000000000000000000000000000000000000000000000600052603260045260246000fdfea26469706673582212200b3bec2319d3ba3e6f04189ce30b665c4a1a5ca98ecaba9653b641dbbe271fcd64736f6c634300080d0033",
  "immutableReferences": {},
  "source": "// SPDX-License-Identifier: MIT\n\npragma solidity 0.8.13;\n\nimport \"@openzeppelin/contracts/utils/Counters.sol\";\nimport \"@openzeppelin/contracts/token/ERC721/extensions/ERC721URIStorage.sol\";\nimport \"@openzeppelin/contracts/token/ERC721/ERC721.sol\";\nimport \"@openzeppelin/contracts/access/Ownable.sol\";\nimport \"@openzeppelin/contracts/security/ReentrancyGuard.sol\";\n\n/// @title An OpenSea clone\n/// @notice A simple NFT marketplace contract\n/// @author Franois Duforest\n/// @dev Marketplace Contract still under development\n\ncontract NFTMarketplace is ReentrancyGuard, Ownable, ERC721URIStorage {\n    // using is used for including a library within a contract in solidity\n    using Counters for Counters.Counter;\n    Counters.Counter private _tokenIds;\n    mapping(string => uint8) hashes;\n    address contractAddress;\n\n    constructor(address marketplaceAddress)\n        ERC721(\"MoonRocket Tokens \", \"MORT\")\n    {\n        contractAddress = marketplaceAddress;\n        // owner = payable(msg.sender);\n    }\n\n    // ::::::::::::: MINT ::::::::::::: //\n\n    /// @notice Function for allowing an address to mint an NFT & authorize the marketplace to transfer sold items from sender address to the buyer's address.\n    /// @param _to The address of the voter\n    /// @param _hash The CID hash\n    /// @param _metadata The json metadata CID hash\n    /// @return tokenId The NFT token id\n    function mint(\n        address _to,\n        string memory _hash,\n        string memory _metadata\n    ) public returns (uint256) {\n        // Check if the token has been already minted\n        require(hashes[_hash] != 1);\n        hashes[_hash] = 1;\n\n        // Attribute a unique token Id\n        _tokenIds.increment();\n        uint256 tokenId = _tokenIds.current();\n\n        // Mint & set Token URI\n        _mint(_to, tokenId);\n        _setTokenURI(tokenId, _metadata);\n\n        // Authorize the marketplace to transfer sold items from sender address to the buyer's address.\n        setApprovalForAll(contractAddress, true);\n\n        return tokenId;\n    }\n}\n",
  "sourcePath": "/Users/Francois/code/Alyra/DApp/nft-marketplace/contracts/NFTmarketplace.sol",
  "compiler": {
    "name": "solc",
    "version": "0.8.13+commit.abaa5c0e.Emscripten.clang"
  },
  "schemaVersion": "3.4.7",
  "updatedAt": "2022-05-06T08:21:18.997Z",
  "networkType": "ethereum",
  "devdoc": {
    "author": "Franois Duforest",
    "details": "Marketplace Contract still under development",
    "kind": "dev",
    "methods": {
      "approve(address,uint256)": {
        "details": "See {IERC721-approve}."
      },
      "balanceOf(address)": {
        "details": "See {IERC721-balanceOf}."
      },
      "getApproved(uint256)": {
        "details": "See {IERC721-getApproved}."
      },
      "isApprovedForAll(address,address)": {
        "details": "See {IERC721-isApprovedForAll}."
      },
      "mint(address,string,string)": {
        "params": {
          "_hash": "The CID hash",
          "_metadata": "The json metadata CID hash",
          "_to": "The address of the voter"
        },
        "returns": {
          "_0": "tokenId The NFT token id"
        }
      },
      "name()": {
        "details": "See {IERC721Metadata-name}."
      },
      "owner()": {
        "details": "Returns the address of the current owner."
      },
      "ownerOf(uint256)": {
        "details": "See {IERC721-ownerOf}."
      },
      "renounceOwnership()": {
        "details": "Leaves the contract without owner. It will not be possible to call `onlyOwner` functions anymore. Can only be called by the current owner. NOTE: Renouncing ownership will leave the contract without an owner, thereby removing any functionality that is only available to the owner."
      },
      "safeTransferFrom(address,address,uint256)": {
        "details": "See {IERC721-safeTransferFrom}."
      },
      "safeTransferFrom(address,address,uint256,bytes)": {
        "details": "See {IERC721-safeTransferFrom}."
      },
      "setApprovalForAll(address,bool)": {
        "details": "See {IERC721-setApprovalForAll}."
      },
      "supportsInterface(bytes4)": {
        "details": "See {IERC165-supportsInterface}."
      },
      "symbol()": {
        "details": "See {IERC721Metadata-symbol}."
      },
      "tokenURI(uint256)": {
        "details": "See {IERC721Metadata-tokenURI}."
      },
      "transferFrom(address,address,uint256)": {
        "details": "See {IERC721-transferFrom}."
      },
      "transferOwnership(address)": {
        "details": "Transfers ownership of the contract to a new account (`newOwner`). Can only be called by the current owner."
      }
    },
    "title": "An OpenSea clone",
    "version": 1
  },
  "userdoc": {
    "kind": "user",
    "methods": {
      "mint(address,string,string)": {
        "notice": "Function for allowing an address to mint an NFT & authorize the marketplace to transfer sold items from sender address to the buyer's address."
      }
    },
    "notice": "A simple NFT marketplace contract",
    "version": 1
  }
}